{
  "_format": "hh-sol-artifact-1",
  "contractName": "Token",
  "sourceName": "contracts/Token.sol",
  "abi": [
    {
      "anonymous": false,
      "inputs": [
        {
          "indexed": true,
          "internalType": "address",
          "name": "owner",
          "type": "address"
        },
        {
          "indexed": true,
          "internalType": "address",
          "name": "spender",
          "type": "address"
        },
        {
          "indexed": false,
          "internalType": "uint256",
          "name": "value",
          "type": "uint256"
        }
      ],
      "name": "Approval",
      "type": "event"
    },
    {
      "anonymous": false,
      "inputs": [
        {
          "indexed": true,
          "internalType": "address",
          "name": "sender",
          "type": "address"
        },
        {
          "indexed": false,
          "internalType": "uint256",
          "name": "tokenAmount",
          "type": "uint256"
        },
        {
          "indexed": false,
          "internalType": "uint256",
          "name": "price",
          "type": "uint256"
        }
      ],
      "name": "BuyToken",
      "type": "event"
    },
    {
      "anonymous": false,
      "inputs": [
        {
          "indexed": true,
          "internalType": "address",
          "name": "from",
          "type": "address"
        },
        {
          "indexed": true,
          "internalType": "address",
          "name": "to",
          "type": "address"
        },
        {
          "indexed": false,
          "internalType": "uint256",
          "name": "value",
          "type": "uint256"
        }
      ],
      "name": "Transfer",
      "type": "event"
    },
    {
      "inputs": [
        {
          "internalType": "address",
          "name": "owner",
          "type": "address"
        },
        {
          "internalType": "address",
          "name": "spender",
          "type": "address"
        }
      ],
      "name": "allowance",
      "outputs": [
        {
          "internalType": "uint256",
          "name": "",
          "type": "uint256"
        }
      ],
      "stateMutability": "view",
      "type": "function"
    },
    {
      "inputs": [
        {
          "internalType": "address",
          "name": "spender",
          "type": "address"
        },
        {
          "internalType": "uint256",
          "name": "amount",
          "type": "uint256"
        }
      ],
      "name": "approve",
      "outputs": [
        {
          "internalType": "bool",
          "name": "",
          "type": "bool"
        }
      ],
      "stateMutability": "nonpayable",
      "type": "function"
    },
    {
      "inputs": [
        {
          "internalType": "address",
          "name": "account",
          "type": "address"
        }
      ],
      "name": "balanceOf",
      "outputs": [
        {
          "internalType": "uint256",
          "name": "",
          "type": "uint256"
        }
      ],
      "stateMutability": "view",
      "type": "function"
    },
    {
      "inputs": [],
      "name": "decimals",
      "outputs": [
        {
          "internalType": "uint8",
          "name": "",
          "type": "uint8"
        }
      ],
      "stateMutability": "view",
      "type": "function"
    },
    {
      "inputs": [
        {
          "internalType": "address",
          "name": "spender",
          "type": "address"
        },
        {
          "internalType": "uint256",
          "name": "subtractedValue",
          "type": "uint256"
        }
      ],
      "name": "decreaseAllowance",
      "outputs": [
        {
          "internalType": "bool",
          "name": "",
          "type": "bool"
        }
      ],
      "stateMutability": "nonpayable",
      "type": "function"
    },
    {
      "inputs": [
        {
          "internalType": "address",
          "name": "spender",
          "type": "address"
        },
        {
          "internalType": "uint256",
          "name": "addedValue",
          "type": "uint256"
        }
      ],
      "name": "increaseAllowance",
      "outputs": [
        {
          "internalType": "bool",
          "name": "",
          "type": "bool"
        }
      ],
      "stateMutability": "nonpayable",
      "type": "function"
    },
    {
      "inputs": [],
      "name": "initialize",
      "outputs": [],
      "stateMutability": "nonpayable",
      "type": "function"
    },
    {
      "inputs": [],
      "name": "name",
      "outputs": [
        {
          "internalType": "string",
          "name": "",
          "type": "string"
        }
      ],
      "stateMutability": "view",
      "type": "function"
    },
    {
      "inputs": [],
      "name": "owh",
      "outputs": [
        {
          "internalType": "address",
          "name": "",
          "type": "address"
        }
      ],
      "stateMutability": "view",
      "type": "function"
    },
    {
      "inputs": [
        {
          "internalType": "address",
          "name": "_who",
          "type": "address"
        }
      ],
      "name": "owhBalanceOf",
      "outputs": [
        {
          "internalType": "uint256",
          "name": "",
          "type": "uint256"
        }
      ],
      "stateMutability": "view",
      "type": "function"
    },
    {
      "inputs": [],
      "name": "owner",
      "outputs": [
        {
          "internalType": "address",
          "name": "",
          "type": "address"
        }
      ],
      "stateMutability": "view",
      "type": "function"
    },
    {
      "inputs": [],
      "name": "symbol",
      "outputs": [
        {
          "internalType": "string",
          "name": "",
          "type": "string"
        }
      ],
      "stateMutability": "view",
      "type": "function"
    },
    {
      "inputs": [],
      "name": "tokenPrice",
      "outputs": [
        {
          "internalType": "uint256",
          "name": "",
          "type": "uint256"
        }
      ],
      "stateMutability": "view",
      "type": "function"
    },
    {
      "inputs": [],
      "name": "totalSupply",
      "outputs": [
        {
          "internalType": "uint256",
          "name": "",
          "type": "uint256"
        }
      ],
      "stateMutability": "view",
      "type": "function"
    },
    {
      "inputs": [
        {
          "internalType": "address",
          "name": "recipient",
          "type": "address"
        },
        {
          "internalType": "uint256",
          "name": "amount",
          "type": "uint256"
        }
      ],
      "name": "transfer",
      "outputs": [
        {
          "internalType": "bool",
          "name": "",
          "type": "bool"
        }
      ],
      "stateMutability": "nonpayable",
      "type": "function"
    },
    {
      "inputs": [
        {
          "internalType": "address",
          "name": "sender",
          "type": "address"
        },
        {
          "internalType": "address",
          "name": "recipient",
          "type": "address"
        },
        {
          "internalType": "uint256",
          "name": "amount",
          "type": "uint256"
        }
      ],
      "name": "transferFrom",
      "outputs": [
        {
          "internalType": "bool",
          "name": "",
          "type": "bool"
        }
      ],
      "stateMutability": "nonpayable",
      "type": "function"
    },
    {
      "stateMutability": "payable",
      "type": "receive"
    }
  ],
  "bytecode": "0x608060405234801561001057600080fd5b50611f1b806100206000396000f3fe6080604052600436106100f75760003560e01c806370a082311161008a57806395d89b411161005957806395d89b41146103c3578063a457c2d7146103ee578063a9059cbb1461042b578063dd62ed3e1461046857610174565b806370a08231146103195780637ff9b596146103565780638129fc1c146103815780638da5cb5b1461039857610174565b806318160ddd116100c657806318160ddd1461024957806323b872dd14610274578063313ce567146102b157806339509351146102dc57610174565b80630452f73f1461017957806306fdde03146101a4578063095ea7b3146101cf5780630ebd79d61461020c57610174565b3661017457610113336065543461010e9190611d34565b6104a5565b3373ffffffffffffffffffffffffffffffffffffffff167ff6f342132c7de5e5a1e99c8efae544c94731f3ff093f5c3c97c6973d9415cdfb606554346101599190611d34565b60655460405161016a929190611c7e565b60405180910390a2005b600080fd5b34801561018557600080fd5b5061018e610606565b60405161019b9190611aeb565b60405180910390f35b3480156101b057600080fd5b506101b961062c565b6040516101c69190611b21565b60405180910390f35b3480156101db57600080fd5b506101f660048036038101906101f191906116a1565b6106be565b6040516102039190611b06565b60405180910390f35b34801561021857600080fd5b50610233600480360381019061022e91906115ed565b6106dc565b6040516102409190611c63565b60405180910390f35b34801561025557600080fd5b5061025e610790565b60405161026b9190611c63565b60405180910390f35b34801561028057600080fd5b5061029b60048036038101906102969190611652565b61079a565b6040516102a89190611b06565b60405180910390f35b3480156102bd57600080fd5b506102c6610892565b6040516102d39190611ca7565b60405180910390f35b3480156102e857600080fd5b5061030360048036038101906102fe91906116a1565b61089b565b6040516103109190611b06565b60405180910390f35b34801561032557600080fd5b50610340600480360381019061033b91906115ed565b610947565b60405161034d9190611c63565b60405180910390f35b34801561036257600080fd5b5061036b610990565b6040516103789190611c63565b60405180910390f35b34801561038d57600080fd5b5061039661099a565b005b3480156103a457600080fd5b506103ad610b93565b6040516103ba9190611aeb565b60405180910390f35b3480156103cf57600080fd5b506103d8610bb9565b6040516103e59190611b21565b60405180910390f35b3480156103fa57600080fd5b50610415600480360381019061041091906116a1565b610c4b565b6040516104229190611b06565b60405180910390f35b34801561043757600080fd5b50610452600480360381019061044d91906116a1565b610d36565b60405161045f9190611b06565b60405180910390f35b34801561047457600080fd5b5061048f600480360381019061048a9190611616565b610d54565b60405161049c9190611c63565b60405180910390f35b600073ffffffffffffffffffffffffffffffffffffffff168273ffffffffffffffffffffffffffffffffffffffff161415610515576040517f08c379a000000000000000000000000000000000000000000000000000000000815260040161050c90611c43565b60405180910390fd5b61052160008383610ddb565b80603560008282546105339190611cde565b9250508190555080603360008473ffffffffffffffffffffffffffffffffffffffff1673ffffffffffffffffffffffffffffffffffffffff16815260200190815260200160002060008282546105899190611cde565b925050819055508173ffffffffffffffffffffffffffffffffffffffff16600073ffffffffffffffffffffffffffffffffffffffff167fddf252ad1be2c89b69c2b068fc378daa952ba7f163c4a11628f55a4df523b3ef836040516105ee9190611c63565b60405180910390a361060260008383610de0565b5050565b606760009054906101000a900473ffffffffffffffffffffffffffffffffffffffff1681565b60606036805461063b90611e16565b80601f016020809104026020016040519081016040528092919081815260200182805461066790611e16565b80156106b45780601f10610689576101008083540402835291602001916106b4565b820191906000526020600020905b81548152906001019060200180831161069757829003601f168201915b5050505050905090565b60006106d26106cb610de5565b8484610ded565b6001905092915050565b6000606760009054906101000a900473ffffffffffffffffffffffffffffffffffffffff1673ffffffffffffffffffffffffffffffffffffffff166370a08231836040518263ffffffff1660e01b81526004016107399190611aeb565b60206040518083038186803b15801561075157600080fd5b505afa158015610765573d6000803e3d6000fd5b505050506040513d601f19601f8201168201806040525081019061078991906116dd565b9050919050565b6000603554905090565b60006107a7848484610fb8565b6000603460008673ffffffffffffffffffffffffffffffffffffffff1673ffffffffffffffffffffffffffffffffffffffff16815260200190815260200160002060006107f2610de5565b73ffffffffffffffffffffffffffffffffffffffff1673ffffffffffffffffffffffffffffffffffffffff16815260200190815260200160002054905082811015610872576040517f08c379a000000000000000000000000000000000000000000000000000000000815260040161086990611bc3565b60405180910390fd5b6108868561087e610de5565b858403610ded565b60019150509392505050565b60006012905090565b600061093d6108a8610de5565b8484603460006108b6610de5565b73ffffffffffffffffffffffffffffffffffffffff1673ffffffffffffffffffffffffffffffffffffffff16815260200190815260200160002060008873ffffffffffffffffffffffffffffffffffffffff1673ffffffffffffffffffffffffffffffffffffffff168152602001908152602001600020546109389190611cde565b610ded565b6001905092915050565b6000603360008373ffffffffffffffffffffffffffffffffffffffff1673ffffffffffffffffffffffffffffffffffffffff168152602001908152602001600020549050919050565b6000606554905090565b600060019054906101000a900460ff16806109c0575060008054906101000a900460ff16155b6109ff576040517f08c379a00000000000000000000000000000000000000000000000000000000081526004016109f690611ba3565b60405180910390fd5b60008060019054906101000a900460ff161590508015610a4f576001600060016101000a81548160ff02191690831515021790555060016000806101000a81548160ff0219169083151502179055505b610ac36040518060400160405280600581526020017f546f6b656e0000000000000000000000000000000000000000000000000000008152506040518060400160405280600381526020017f544b4e000000000000000000000000000000000000000000000000000000000081525061123c565b610acf336103e86104a5565b624c4b4060658190555033606660006101000a81548173ffffffffffffffffffffffffffffffffffffffff021916908373ffffffffffffffffffffffffffffffffffffffff16021790555073f3ab703fc4c5b49cf20d4af6114feeb984385fdf606760006101000a81548173ffffffffffffffffffffffffffffffffffffffff021916908373ffffffffffffffffffffffffffffffffffffffff1602179055508015610b905760008060016101000a81548160ff0219169083151502179055505b50565b606660009054906101000a900473ffffffffffffffffffffffffffffffffffffffff1681565b606060378054610bc890611e16565b80601f0160208091040260200160405190810160405280929190818152602001828054610bf490611e16565b8015610c415780601f10610c1657610100808354040283529160200191610c41565b820191906000526020600020905b815481529060010190602001808311610c2457829003601f168201915b5050505050905090565b60008060346000610c5a610de5565b73ffffffffffffffffffffffffffffffffffffffff1673ffffffffffffffffffffffffffffffffffffffff16815260200190815260200160002060008573ffffffffffffffffffffffffffffffffffffffff1673ffffffffffffffffffffffffffffffffffffffff16815260200190815260200160002054905082811015610d17576040517f08c379a0000000000000000000000000000000000000000000000000000000008152600401610d0e90611c23565b60405180910390fd5b610d2b610d22610de5565b85858403610ded565b600191505092915050565b6000610d4a610d43610de5565b8484610fb8565b6001905092915050565b6000603460008473ffffffffffffffffffffffffffffffffffffffff1673ffffffffffffffffffffffffffffffffffffffff16815260200190815260200160002060008373ffffffffffffffffffffffffffffffffffffffff1673ffffffffffffffffffffffffffffffffffffffff16815260200190815260200160002054905092915050565b505050565b505050565b600033905090565b600073ffffffffffffffffffffffffffffffffffffffff168373ffffffffffffffffffffffffffffffffffffffff161415610e5d576040517f08c379a0000000000000000000000000000000000000000000000000000000008152600401610e5490611c03565b60405180910390fd5b600073ffffffffffffffffffffffffffffffffffffffff168273ffffffffffffffffffffffffffffffffffffffff161415610ecd576040517f08c379a0000000000000000000000000000000000000000000000000000000008152600401610ec490611b63565b60405180910390fd5b80603460008573ffffffffffffffffffffffffffffffffffffffff1673ffffffffffffffffffffffffffffffffffffffff16815260200190815260200160002060008473ffffffffffffffffffffffffffffffffffffffff1673ffffffffffffffffffffffffffffffffffffffff168152602001908152602001600020819055508173ffffffffffffffffffffffffffffffffffffffff168373ffffffffffffffffffffffffffffffffffffffff167f8c5be1e5ebec7d5bd14f71427d1e84f3dd0314c0f7b2291e5b200ac8c7c3b92583604051610fab9190611c63565b60405180910390a3505050565b600073ffffffffffffffffffffffffffffffffffffffff168373ffffffffffffffffffffffffffffffffffffffff161415611028576040517f08c379a000000000000000000000000000000000000000000000000000000000815260040161101f90611be3565b60405180910390fd5b600073ffffffffffffffffffffffffffffffffffffffff168273ffffffffffffffffffffffffffffffffffffffff161415611098576040517f08c379a000000000000000000000000000000000000000000000000000000000815260040161108f90611b43565b60405180910390fd5b6110a3838383610ddb565b6000603360008573ffffffffffffffffffffffffffffffffffffffff1673ffffffffffffffffffffffffffffffffffffffff1681526020019081526020016000205490508181101561112a576040517f08c379a000000000000000000000000000000000000000000000000000000000815260040161112190611b83565b60405180910390fd5b818103603360008673ffffffffffffffffffffffffffffffffffffffff1673ffffffffffffffffffffffffffffffffffffffff1681526020019081526020016000208190555081603360008573ffffffffffffffffffffffffffffffffffffffff1673ffffffffffffffffffffffffffffffffffffffff16815260200190815260200160002060008282546111bf9190611cde565b925050819055508273ffffffffffffffffffffffffffffffffffffffff168473ffffffffffffffffffffffffffffffffffffffff167fddf252ad1be2c89b69c2b068fc378daa952ba7f163c4a11628f55a4df523b3ef846040516112239190611c63565b60405180910390a3611236848484610de0565b50505050565b600060019054906101000a900460ff1680611262575060008054906101000a900460ff16155b6112a1576040517f08c379a000000000000000000000000000000000000000000000000000000000815260040161129890611ba3565b60405180910390fd5b60008060019054906101000a900460ff1615905080156112f1576001600060016101000a81548160ff02191690831515021790555060016000806101000a81548160ff0219169083151502179055505b6112f9611329565b6113038383611402565b80156113245760008060016101000a81548160ff0219169083151502179055505b505050565b600060019054906101000a900460ff168061134f575060008054906101000a900460ff16155b61138e576040517f08c379a000000000000000000000000000000000000000000000000000000000815260040161138590611ba3565b60405180910390fd5b60008060019054906101000a900460ff1615905080156113de576001600060016101000a81548160ff02191690831515021790555060016000806101000a81548160ff0219169083151502179055505b80156113ff5760008060016101000a81548160ff0219169083151502179055505b50565b600060019054906101000a900460ff1680611428575060008054906101000a900460ff16155b611467576040517f08c379a000000000000000000000000000000000000000000000000000000000815260040161145e90611ba3565b60405180910390fd5b60008060019054906101000a900460ff1615905080156114b7576001600060016101000a81548160ff02191690831515021790555060016000806101000a81548160ff0219169083151502179055505b82603690805190602001906114cd92919061150b565b5081603790805190602001906114e492919061150b565b5080156115065760008060016101000a81548160ff0219169083151502179055505b505050565b82805461151790611e16565b90600052602060002090601f0160209004810192826115395760008555611580565b82601f1061155257805160ff1916838001178555611580565b82800160010185558215611580579182015b8281111561157f578251825591602001919060010190611564565b5b50905061158d9190611591565b5090565b5b808211156115aa576000816000905550600101611592565b5090565b6000813590506115bd81611eb7565b92915050565b6000813590506115d281611ece565b92915050565b6000815190506115e781611ece565b92915050565b6000602082840312156115ff57600080fd5b600061160d848285016115ae565b91505092915050565b6000806040838503121561162957600080fd5b6000611637858286016115ae565b9250506020611648858286016115ae565b9150509250929050565b60008060006060848603121561166757600080fd5b6000611675868287016115ae565b9350506020611686868287016115ae565b9250506040611697868287016115c3565b9150509250925092565b600080604083850312156116b457600080fd5b60006116c2858286016115ae565b92505060206116d3858286016115c3565b9150509250929050565b6000602082840312156116ef57600080fd5b60006116fd848285016115d8565b91505092915050565b61170f81611d8e565b82525050565b61171e81611da0565b82525050565b600061172f82611cc2565b6117398185611ccd565b9350611749818560208601611de3565b61175281611ea6565b840191505092915050565b600061176a602383611ccd565b91507f45524332303a207472616e7366657220746f20746865207a65726f206164647260008301527f65737300000000000000000000000000000000000000000000000000000000006020830152604082019050919050565b60006117d0602283611ccd565b91507f45524332303a20617070726f766520746f20746865207a65726f20616464726560008301527f73730000000000000000000000000000000000000000000000000000000000006020830152604082019050919050565b6000611836602683611ccd565b91507f45524332303a207472616e7366657220616d6f756e742065786365656473206260008301527f616c616e636500000000000000000000000000000000000000000000000000006020830152604082019050919050565b600061189c602e83611ccd565b91507f496e697469616c697a61626c653a20636f6e747261637420697320616c72656160008301527f647920696e697469616c697a65640000000000000000000000000000000000006020830152604082019050919050565b6000611902602883611ccd565b91507f45524332303a207472616e7366657220616d6f756e742065786365656473206160008301527f6c6c6f77616e63650000000000000000000000000000000000000000000000006020830152604082019050919050565b6000611968602583611ccd565b91507f45524332303a207472616e736665722066726f6d20746865207a65726f20616460008301527f64726573730000000000000000000000000000000000000000000000000000006020830152604082019050919050565b60006119ce602483611ccd565b91507f45524332303a20617070726f76652066726f6d20746865207a65726f2061646460008301527f72657373000000000000000000000000000000000000000000000000000000006020830152604082019050919050565b6000611a34602583611ccd565b91507f45524332303a2064656372656173656420616c6c6f77616e63652062656c6f7760008301527f207a65726f0000000000000000000000000000000000000000000000000000006020830152604082019050919050565b6000611a9a601f83611ccd565b91507f45524332303a206d696e7420746f20746865207a65726f2061646472657373006000830152602082019050919050565b611ad681611dcc565b82525050565b611ae581611dd6565b82525050565b6000602082019050611b006000830184611706565b92915050565b6000602082019050611b1b6000830184611715565b92915050565b60006020820190508181036000830152611b3b8184611724565b905092915050565b60006020820190508181036000830152611b5c8161175d565b9050919050565b60006020820190508181036000830152611b7c816117c3565b9050919050565b60006020820190508181036000830152611b9c81611829565b9050919050565b60006020820190508181036000830152611bbc8161188f565b9050919050565b60006020820190508181036000830152611bdc816118f5565b9050919050565b60006020820190508181036000830152611bfc8161195b565b9050919050565b60006020820190508181036000830152611c1c816119c1565b9050919050565b60006020820190508181036000830152611c3c81611a27565b9050919050565b60006020820190508181036000830152611c5c81611a8d565b9050919050565b6000602082019050611c786000830184611acd565b92915050565b6000604082019050611c936000830185611acd565b611ca06020830184611acd565b9392505050565b6000602082019050611cbc6000830184611adc565b92915050565b600081519050919050565b600082825260208201905092915050565b6000611ce982611dcc565b9150611cf483611dcc565b9250827fffffffffffffffffffffffffffffffffffffffffffffffffffffffffffffffff03821115611d2957611d28611e48565b5b828201905092915050565b6000611d3f82611dcc565b9150611d4a83611dcc565b9250817fffffffffffffffffffffffffffffffffffffffffffffffffffffffffffffffff0483118215151615611d8357611d82611e48565b5b828202905092915050565b6000611d9982611dac565b9050919050565b60008115159050919050565b600073ffffffffffffffffffffffffffffffffffffffff82169050919050565b6000819050919050565b600060ff82169050919050565b60005b83811015611e01578082015181840152602081019050611de6565b83811115611e10576000848401525b50505050565b60006002820490506001821680611e2e57607f821691505b60208210811415611e4257611e41611e77565b5b50919050565b7f4e487b7100000000000000000000000000000000000000000000000000000000600052601160045260246000fd5b7f4e487b7100000000000000000000000000000000000000000000000000000000600052602260045260246000fd5b6000601f19601f8301169050919050565b611ec081611d8e565b8114611ecb57600080fd5b50565b611ed781611dcc565b8114611ee257600080fd5b5056fea2646970667358221220012824e2616f35fd21f07d9cf14bb910d3585795b4aaae0a534d98deefe6733c64736f6c63430008000033",
  "linkReferences": {},
  "deployedLinkReferences": {}
}