{
  "_format": "hh-sol-artifact-1",
  "contractName": "Token",
  "sourceName": "contracts/Token.sol",
  "abi": [
    {
      "anonymous": false,
      "inputs": [
        {
          "indexed": true,
          "internalType": "address",
          "name": "owner",
          "type": "address"
        },
        {
          "indexed": true,
          "internalType": "address",
          "name": "spender",
          "type": "address"
        },
        {
          "indexed": false,
          "internalType": "uint256",
          "name": "value",
          "type": "uint256"
        }
      ],
      "name": "Approval",
      "type": "event"
    },
    {
      "anonymous": false,
      "inputs": [
        {
          "indexed": true,
          "internalType": "address",
          "name": "sender",
          "type": "address"
        },
        {
          "indexed": false,
          "internalType": "uint256",
          "name": "tokenAmount",
          "type": "uint256"
        },
        {
          "indexed": false,
          "internalType": "uint256",
          "name": "price",
          "type": "uint256"
        }
      ],
      "name": "BuyToken",
      "type": "event"
    },
    {
      "anonymous": false,
      "inputs": [
        {
          "indexed": true,
          "internalType": "address",
          "name": "from",
          "type": "address"
        },
        {
          "indexed": true,
          "internalType": "address",
          "name": "to",
          "type": "address"
        },
        {
          "indexed": false,
          "internalType": "uint256",
          "name": "value",
          "type": "uint256"
        }
      ],
      "name": "Transfer",
      "type": "event"
    },
    {
      "inputs": [
        {
          "internalType": "address",
          "name": "owner",
          "type": "address"
        },
        {
          "internalType": "address",
          "name": "spender",
          "type": "address"
        }
      ],
      "name": "allowance",
      "outputs": [
        {
          "internalType": "uint256",
          "name": "",
          "type": "uint256"
        }
      ],
      "stateMutability": "view",
      "type": "function"
    },
    {
      "inputs": [
        {
          "internalType": "address",
          "name": "spender",
          "type": "address"
        },
        {
          "internalType": "uint256",
          "name": "amount",
          "type": "uint256"
        }
      ],
      "name": "approve",
      "outputs": [
        {
          "internalType": "bool",
          "name": "",
          "type": "bool"
        }
      ],
      "stateMutability": "nonpayable",
      "type": "function"
    },
    {
      "inputs": [
        {
          "internalType": "address",
          "name": "account",
          "type": "address"
        }
      ],
      "name": "balanceOf",
      "outputs": [
        {
          "internalType": "uint256",
          "name": "",
          "type": "uint256"
        }
      ],
      "stateMutability": "view",
      "type": "function"
    },
    {
      "inputs": [],
      "name": "decimals",
      "outputs": [
        {
          "internalType": "uint8",
          "name": "",
          "type": "uint8"
        }
      ],
      "stateMutability": "view",
      "type": "function"
    },
    {
      "inputs": [
        {
          "internalType": "address",
          "name": "spender",
          "type": "address"
        },
        {
          "internalType": "uint256",
          "name": "subtractedValue",
          "type": "uint256"
        }
      ],
      "name": "decreaseAllowance",
      "outputs": [
        {
          "internalType": "bool",
          "name": "",
          "type": "bool"
        }
      ],
      "stateMutability": "nonpayable",
      "type": "function"
    },
    {
      "inputs": [
        {
          "internalType": "address",
          "name": "spender",
          "type": "address"
        },
        {
          "internalType": "uint256",
          "name": "addedValue",
          "type": "uint256"
        }
      ],
      "name": "increaseAllowance",
      "outputs": [
        {
          "internalType": "bool",
          "name": "",
          "type": "bool"
        }
      ],
      "stateMutability": "nonpayable",
      "type": "function"
    },
    {
      "inputs": [],
      "name": "initialize",
      "outputs": [],
      "stateMutability": "nonpayable",
      "type": "function"
    },
    {
      "inputs": [],
      "name": "name",
      "outputs": [
        {
          "internalType": "string",
          "name": "",
          "type": "string"
        }
      ],
      "stateMutability": "view",
      "type": "function"
    },
    {
      "inputs": [],
      "name": "owh",
      "outputs": [
        {
          "internalType": "address",
          "name": "",
          "type": "address"
        }
      ],
      "stateMutability": "view",
      "type": "function"
    },
    {
      "inputs": [
        {
          "internalType": "address",
          "name": "_who",
          "type": "address"
        }
      ],
      "name": "owhBalanceOf",
      "outputs": [
        {
          "internalType": "uint256",
          "name": "",
          "type": "uint256"
        }
      ],
      "stateMutability": "view",
      "type": "function"
    },
    {
      "inputs": [],
      "name": "owner",
      "outputs": [
        {
          "internalType": "address",
          "name": "",
          "type": "address"
        }
      ],
      "stateMutability": "view",
      "type": "function"
    },
    {
      "inputs": [],
      "name": "symbol",
      "outputs": [
        {
          "internalType": "string",
          "name": "",
          "type": "string"
        }
      ],
      "stateMutability": "view",
      "type": "function"
    },
    {
      "inputs": [],
      "name": "tokenPrice",
      "outputs": [
        {
          "internalType": "uint256",
          "name": "",
          "type": "uint256"
        }
      ],
      "stateMutability": "view",
      "type": "function"
    },
    {
      "inputs": [],
      "name": "totalSupply",
      "outputs": [
        {
          "internalType": "uint256",
          "name": "",
          "type": "uint256"
        }
      ],
      "stateMutability": "view",
      "type": "function"
    },
    {
      "inputs": [
        {
          "internalType": "address",
          "name": "recipient",
          "type": "address"
        },
        {
          "internalType": "uint256",
          "name": "amount",
          "type": "uint256"
        }
      ],
      "name": "transfer",
      "outputs": [
        {
          "internalType": "bool",
          "name": "",
          "type": "bool"
        }
      ],
      "stateMutability": "nonpayable",
      "type": "function"
    },
    {
      "inputs": [
        {
          "internalType": "address",
          "name": "sender",
          "type": "address"
        },
        {
          "internalType": "address",
          "name": "recipient",
          "type": "address"
        },
        {
          "internalType": "uint256",
          "name": "amount",
          "type": "uint256"
        }
      ],
      "name": "transferFrom",
      "outputs": [
        {
          "internalType": "bool",
          "name": "",
          "type": "bool"
        }
      ],
      "stateMutability": "nonpayable",
      "type": "function"
    },
    {
      "stateMutability": "payable",
      "type": "receive"
    }
  ],
  "bytecode": "0x608060405234801561001057600080fd5b50611f8e806100206000396000f3fe6080604052600436106100f75760003560e01c806370a082311161008a57806395d89b411161005957806395d89b41146103d6578063a457c2d714610401578063a9059cbb1461043e578063dd62ed3e1461047b57610187565b806370a082311461032c5780637ff9b596146103695780638129fc1c146103945780638da5cb5b146103ab57610187565b806318160ddd116100c657806318160ddd1461025c57806323b872dd14610287578063313ce567146102c457806339509351146102ef57610187565b80630452f73f1461018c57806306fdde03146101b7578063095ea7b3146101e25780630ebd79d61461021f57610187565b366101875761012633670de0b6b3a7640000606554346101179190611d78565b6101219190611d47565b6104b8565b3373ffffffffffffffffffffffffffffffffffffffff167ff6f342132c7de5e5a1e99c8efae544c94731f3ff093f5c3c97c6973d9415cdfb6065543461016c9190611d78565b60655460405161017d929190611c91565b60405180910390a2005b600080fd5b34801561019857600080fd5b506101a1610619565b6040516101ae9190611afe565b60405180910390f35b3480156101c357600080fd5b506101cc61063f565b6040516101d99190611b34565b60405180910390f35b3480156101ee57600080fd5b50610209600480360381019061020491906116b4565b6106d1565b6040516102169190611b19565b60405180910390f35b34801561022b57600080fd5b5061024660048036038101906102419190611600565b6106ef565b6040516102539190611c76565b60405180910390f35b34801561026857600080fd5b506102716107a3565b60405161027e9190611c76565b60405180910390f35b34801561029357600080fd5b506102ae60048036038101906102a99190611665565b6107ad565b6040516102bb9190611b19565b60405180910390f35b3480156102d057600080fd5b506102d96108a5565b6040516102e69190611cba565b60405180910390f35b3480156102fb57600080fd5b50610316600480360381019061031191906116b4565b6108ae565b6040516103239190611b19565b60405180910390f35b34801561033857600080fd5b50610353600480360381019061034e9190611600565b61095a565b6040516103609190611c76565b60405180910390f35b34801561037557600080fd5b5061037e6109a3565b60405161038b9190611c76565b60405180910390f35b3480156103a057600080fd5b506103a96109ad565b005b3480156103b757600080fd5b506103c0610ba6565b6040516103cd9190611afe565b60405180910390f35b3480156103e257600080fd5b506103eb610bcc565b6040516103f89190611b34565b60405180910390f35b34801561040d57600080fd5b50610428600480360381019061042391906116b4565b610c5e565b6040516104359190611b19565b60405180910390f35b34801561044a57600080fd5b50610465600480360381019061046091906116b4565b610d49565b6040516104729190611b19565b60405180910390f35b34801561048757600080fd5b506104a2600480360381019061049d9190611629565b610d67565b6040516104af9190611c76565b60405180910390f35b600073ffffffffffffffffffffffffffffffffffffffff168273ffffffffffffffffffffffffffffffffffffffff161415610528576040517f08c379a000000000000000000000000000000000000000000000000000000000815260040161051f90611c56565b60405180910390fd5b61053460008383610dee565b80603560008282546105469190611cf1565b9250508190555080603360008473ffffffffffffffffffffffffffffffffffffffff1673ffffffffffffffffffffffffffffffffffffffff168152602001908152602001600020600082825461059c9190611cf1565b925050819055508173ffffffffffffffffffffffffffffffffffffffff16600073ffffffffffffffffffffffffffffffffffffffff167fddf252ad1be2c89b69c2b068fc378daa952ba7f163c4a11628f55a4df523b3ef836040516106019190611c76565b60405180910390a361061560008383610df3565b5050565b606760009054906101000a900473ffffffffffffffffffffffffffffffffffffffff1681565b60606036805461064e90611e5a565b80601f016020809104026020016040519081016040528092919081815260200182805461067a90611e5a565b80156106c75780601f1061069c576101008083540402835291602001916106c7565b820191906000526020600020905b8154815290600101906020018083116106aa57829003601f168201915b5050505050905090565b60006106e56106de610df8565b8484610e00565b6001905092915050565b6000606760009054906101000a900473ffffffffffffffffffffffffffffffffffffffff1673ffffffffffffffffffffffffffffffffffffffff166370a08231836040518263ffffffff1660e01b815260040161074c9190611afe565b60206040518083038186803b15801561076457600080fd5b505afa158015610778573d6000803e3d6000fd5b505050506040513d601f19601f8201168201806040525081019061079c91906116f0565b9050919050565b6000603554905090565b60006107ba848484610fcb565b6000603460008673ffffffffffffffffffffffffffffffffffffffff1673ffffffffffffffffffffffffffffffffffffffff1681526020019081526020016000206000610805610df8565b73ffffffffffffffffffffffffffffffffffffffff1673ffffffffffffffffffffffffffffffffffffffff16815260200190815260200160002054905082811015610885576040517f08c379a000000000000000000000000000000000000000000000000000000000815260040161087c90611bd6565b60405180910390fd5b61089985610891610df8565b858403610e00565b60019150509392505050565b60006012905090565b60006109506108bb610df8565b8484603460006108c9610df8565b73ffffffffffffffffffffffffffffffffffffffff1673ffffffffffffffffffffffffffffffffffffffff16815260200190815260200160002060008873ffffffffffffffffffffffffffffffffffffffff1673ffffffffffffffffffffffffffffffffffffffff1681526020019081526020016000205461094b9190611cf1565b610e00565b6001905092915050565b6000603360008373ffffffffffffffffffffffffffffffffffffffff1673ffffffffffffffffffffffffffffffffffffffff168152602001908152602001600020549050919050565b6000606554905090565b600060019054906101000a900460ff16806109d3575060008054906101000a900460ff16155b610a12576040517f08c379a0000000000000000000000000000000000000000000000000000000008152600401610a0990611bb6565b60405180910390fd5b60008060019054906101000a900460ff161590508015610a62576001600060016101000a81548160ff02191690831515021790555060016000806101000a81548160ff0219169083151502179055505b610ad66040518060400160405280600581526020017f546f6b656e0000000000000000000000000000000000000000000000000000008152506040518060400160405280600381526020017f544b4e000000000000000000000000000000000000000000000000000000000081525061124f565b610ae2336103e86104b8565b624c4b4060658190555033606660006101000a81548173ffffffffffffffffffffffffffffffffffffffff021916908373ffffffffffffffffffffffffffffffffffffffff16021790555073a4465b289842fb8fa856b28236825220202fde68606760006101000a81548173ffffffffffffffffffffffffffffffffffffffff021916908373ffffffffffffffffffffffffffffffffffffffff1602179055508015610ba35760008060016101000a81548160ff0219169083151502179055505b50565b606660009054906101000a900473ffffffffffffffffffffffffffffffffffffffff1681565b606060378054610bdb90611e5a565b80601f0160208091040260200160405190810160405280929190818152602001828054610c0790611e5a565b8015610c545780601f10610c2957610100808354040283529160200191610c54565b820191906000526020600020905b815481529060010190602001808311610c3757829003601f168201915b5050505050905090565b60008060346000610c6d610df8565b73ffffffffffffffffffffffffffffffffffffffff1673ffffffffffffffffffffffffffffffffffffffff16815260200190815260200160002060008573ffffffffffffffffffffffffffffffffffffffff1673ffffffffffffffffffffffffffffffffffffffff16815260200190815260200160002054905082811015610d2a576040517f08c379a0000000000000000000000000000000000000000000000000000000008152600401610d2190611c36565b60405180910390fd5b610d3e610d35610df8565b85858403610e00565b600191505092915050565b6000610d5d610d56610df8565b8484610fcb565b6001905092915050565b6000603460008473ffffffffffffffffffffffffffffffffffffffff1673ffffffffffffffffffffffffffffffffffffffff16815260200190815260200160002060008373ffffffffffffffffffffffffffffffffffffffff1673ffffffffffffffffffffffffffffffffffffffff16815260200190815260200160002054905092915050565b505050565b505050565b600033905090565b600073ffffffffffffffffffffffffffffffffffffffff168373ffffffffffffffffffffffffffffffffffffffff161415610e70576040517f08c379a0000000000000000000000000000000000000000000000000000000008152600401610e6790611c16565b60405180910390fd5b600073ffffffffffffffffffffffffffffffffffffffff168273ffffffffffffffffffffffffffffffffffffffff161415610ee0576040517f08c379a0000000000000000000000000000000000000000000000000000000008152600401610ed790611b76565b60405180910390fd5b80603460008573ffffffffffffffffffffffffffffffffffffffff1673ffffffffffffffffffffffffffffffffffffffff16815260200190815260200160002060008473ffffffffffffffffffffffffffffffffffffffff1673ffffffffffffffffffffffffffffffffffffffff168152602001908152602001600020819055508173ffffffffffffffffffffffffffffffffffffffff168373ffffffffffffffffffffffffffffffffffffffff167f8c5be1e5ebec7d5bd14f71427d1e84f3dd0314c0f7b2291e5b200ac8c7c3b92583604051610fbe9190611c76565b60405180910390a3505050565b600073ffffffffffffffffffffffffffffffffffffffff168373ffffffffffffffffffffffffffffffffffffffff16141561103b576040517f08c379a000000000000000000000000000000000000000000000000000000000815260040161103290611bf6565b60405180910390fd5b600073ffffffffffffffffffffffffffffffffffffffff168273ffffffffffffffffffffffffffffffffffffffff1614156110ab576040517f08c379a00000000000000000000000000000000000000000000000000000000081526004016110a290611b56565b60405180910390fd5b6110b6838383610dee565b6000603360008573ffffffffffffffffffffffffffffffffffffffff1673ffffffffffffffffffffffffffffffffffffffff1681526020019081526020016000205490508181101561113d576040517f08c379a000000000000000000000000000000000000000000000000000000000815260040161113490611b96565b60405180910390fd5b818103603360008673ffffffffffffffffffffffffffffffffffffffff1673ffffffffffffffffffffffffffffffffffffffff1681526020019081526020016000208190555081603360008573ffffffffffffffffffffffffffffffffffffffff1673ffffffffffffffffffffffffffffffffffffffff16815260200190815260200160002060008282546111d29190611cf1565b925050819055508273ffffffffffffffffffffffffffffffffffffffff168473ffffffffffffffffffffffffffffffffffffffff167fddf252ad1be2c89b69c2b068fc378daa952ba7f163c4a11628f55a4df523b3ef846040516112369190611c76565b60405180910390a3611249848484610df3565b50505050565b600060019054906101000a900460ff1680611275575060008054906101000a900460ff16155b6112b4576040517f08c379a00000000000000000000000000000000000000000000000000000000081526004016112ab90611bb6565b60405180910390fd5b60008060019054906101000a900460ff161590508015611304576001600060016101000a81548160ff02191690831515021790555060016000806101000a81548160ff0219169083151502179055505b61130c61133c565b6113168383611415565b80156113375760008060016101000a81548160ff0219169083151502179055505b505050565b600060019054906101000a900460ff1680611362575060008054906101000a900460ff16155b6113a1576040517f08c379a000000000000000000000000000000000000000000000000000000000815260040161139890611bb6565b60405180910390fd5b60008060019054906101000a900460ff1615905080156113f1576001600060016101000a81548160ff02191690831515021790555060016000806101000a81548160ff0219169083151502179055505b80156114125760008060016101000a81548160ff0219169083151502179055505b50565b600060019054906101000a900460ff168061143b575060008054906101000a900460ff16155b61147a576040517f08c379a000000000000000000000000000000000000000000000000000000000815260040161147190611bb6565b60405180910390fd5b60008060019054906101000a900460ff1615905080156114ca576001600060016101000a81548160ff02191690831515021790555060016000806101000a81548160ff0219169083151502179055505b82603690805190602001906114e092919061151e565b5081603790805190602001906114f792919061151e565b5080156115195760008060016101000a81548160ff0219169083151502179055505b505050565b82805461152a90611e5a565b90600052602060002090601f01602090048101928261154c5760008555611593565b82601f1061156557805160ff1916838001178555611593565b82800160010185558215611593579182015b82811115611592578251825591602001919060010190611577565b5b5090506115a091906115a4565b5090565b5b808211156115bd5760008160009055506001016115a5565b5090565b6000813590506115d081611f2a565b92915050565b6000813590506115e581611f41565b92915050565b6000815190506115fa81611f41565b92915050565b60006020828403121561161257600080fd5b6000611620848285016115c1565b91505092915050565b6000806040838503121561163c57600080fd5b600061164a858286016115c1565b925050602061165b858286016115c1565b9150509250929050565b60008060006060848603121561167a57600080fd5b6000611688868287016115c1565b9350506020611699868287016115c1565b92505060406116aa868287016115d6565b9150509250925092565b600080604083850312156116c757600080fd5b60006116d5858286016115c1565b92505060206116e6858286016115d6565b9150509250929050565b60006020828403121561170257600080fd5b6000611710848285016115eb565b91505092915050565b61172281611dd2565b82525050565b61173181611de4565b82525050565b600061174282611cd5565b61174c8185611ce0565b935061175c818560208601611e27565b61176581611f19565b840191505092915050565b600061177d602383611ce0565b91507f45524332303a207472616e7366657220746f20746865207a65726f206164647260008301527f65737300000000000000000000000000000000000000000000000000000000006020830152604082019050919050565b60006117e3602283611ce0565b91507f45524332303a20617070726f766520746f20746865207a65726f20616464726560008301527f73730000000000000000000000000000000000000000000000000000000000006020830152604082019050919050565b6000611849602683611ce0565b91507f45524332303a207472616e7366657220616d6f756e742065786365656473206260008301527f616c616e636500000000000000000000000000000000000000000000000000006020830152604082019050919050565b60006118af602e83611ce0565b91507f496e697469616c697a61626c653a20636f6e747261637420697320616c72656160008301527f647920696e697469616c697a65640000000000000000000000000000000000006020830152604082019050919050565b6000611915602883611ce0565b91507f45524332303a207472616e7366657220616d6f756e742065786365656473206160008301527f6c6c6f77616e63650000000000000000000000000000000000000000000000006020830152604082019050919050565b600061197b602583611ce0565b91507f45524332303a207472616e736665722066726f6d20746865207a65726f20616460008301527f64726573730000000000000000000000000000000000000000000000000000006020830152604082019050919050565b60006119e1602483611ce0565b91507f45524332303a20617070726f76652066726f6d20746865207a65726f2061646460008301527f72657373000000000000000000000000000000000000000000000000000000006020830152604082019050919050565b6000611a47602583611ce0565b91507f45524332303a2064656372656173656420616c6c6f77616e63652062656c6f7760008301527f207a65726f0000000000000000000000000000000000000000000000000000006020830152604082019050919050565b6000611aad601f83611ce0565b91507f45524332303a206d696e7420746f20746865207a65726f2061646472657373006000830152602082019050919050565b611ae981611e10565b82525050565b611af881611e1a565b82525050565b6000602082019050611b136000830184611719565b92915050565b6000602082019050611b2e6000830184611728565b92915050565b60006020820190508181036000830152611b4e8184611737565b905092915050565b60006020820190508181036000830152611b6f81611770565b9050919050565b60006020820190508181036000830152611b8f816117d6565b9050919050565b60006020820190508181036000830152611baf8161183c565b9050919050565b60006020820190508181036000830152611bcf816118a2565b9050919050565b60006020820190508181036000830152611bef81611908565b9050919050565b60006020820190508181036000830152611c0f8161196e565b9050919050565b60006020820190508181036000830152611c2f816119d4565b9050919050565b60006020820190508181036000830152611c4f81611a3a565b9050919050565b60006020820190508181036000830152611c6f81611aa0565b9050919050565b6000602082019050611c8b6000830184611ae0565b92915050565b6000604082019050611ca66000830185611ae0565b611cb36020830184611ae0565b9392505050565b6000602082019050611ccf6000830184611aef565b92915050565b600081519050919050565b600082825260208201905092915050565b6000611cfc82611e10565b9150611d0783611e10565b9250827fffffffffffffffffffffffffffffffffffffffffffffffffffffffffffffffff03821115611d3c57611d3b611e8c565b5b828201905092915050565b6000611d5282611e10565b9150611d5d83611e10565b925082611d6d57611d6c611ebb565b5b828204905092915050565b6000611d8382611e10565b9150611d8e83611e10565b9250817fffffffffffffffffffffffffffffffffffffffffffffffffffffffffffffffff0483118215151615611dc757611dc6611e8c565b5b828202905092915050565b6000611ddd82611df0565b9050919050565b60008115159050919050565b600073ffffffffffffffffffffffffffffffffffffffff82169050919050565b6000819050919050565b600060ff82169050919050565b60005b83811015611e45578082015181840152602081019050611e2a565b83811115611e54576000848401525b50505050565b60006002820490506001821680611e7257607f821691505b60208210811415611e8657611e85611eea565b5b50919050565b7f4e487b7100000000000000000000000000000000000000000000000000000000600052601160045260246000fd5b7f4e487b7100000000000000000000000000000000000000000000000000000000600052601260045260246000fd5b7f4e487b7100000000000000000000000000000000000000000000000000000000600052602260045260246000fd5b6000601f19601f8301169050919050565b611f3381611dd2565b8114611f3e57600080fd5b50565b611f4a81611e10565b8114611f5557600080fd5b5056fea2646970667358221220e3531297b75802a1139b68a83f6a7ab45950cd051bfaf3caacb12ef68344b0cd64736f6c63430008000033",
  "linkReferences": {},
  "deployedLinkReferences": {}
}